:1000000000308A00282800000A108A100A1182078E
:100010003F3486345B344F3466346D347D3407347A
:100020007F346F342530840083130008031925289A
:100030000230F800F701F70B1B28F80B1A2897304D
:10004000F700F70B2128800B18288A110A12842840
:10005000840183131F308305831603170908C039F1
:10006000890003131F129F120030031788008312A8
:10007000870188018901FF300313A3000030831634
:100080008500860087008312A300831688008501FF
:10009000073083128500831685010830831285009E
:1000A000A2012208093C031C8C2822080420F80025
:1000B000A400A40983168601831224088600A001E7
:1000C0002008093C031C8A2820080420F800A4000A
:1000D000A40983168801831224088800A10121083D
:1000E000093C031C882821080420F800A400A40966
:1000F0000030A30083168701831224088700023092
:10010000A400FA30A5001228A40B8128A10A6F28A8
:0C011000A00A6028A20A51284B286300B6
:04400E00F22CFF3F52
:00000001FF
;PIC16F887
